:1000000018C0FECFFDCFFCCFFBCFFACFF9CFF8CF92
:10001000F7CFF6CFF5CFA5C0F3CFF2CFF1CFF0CF2A
:10002000EFCFEECFEDCF000000000400020026006D
:100030000000F894EE27ECBBE5BFF8E1A4B7A77F7A
:10004000A4BFF1BDE1BD8DE0A2E0ED938A95E9F793
:1000500080E8A0E6ED938A95E9F7EAE2F0E0859181
:100060009591009761F0A591B59105901590BF010C
:10007000F00105900D920197E1F7FB01F0CFE0E070
:10008000E3BBE4BBE5BBEFEDEDBFC0E8A5C05D9B06
:10009000FECFE881ECB92196089585D100E010E00B
:1000A00030E0F2D01A972CF4EC81E05D3E2F3A93C9
:1000B0001FC0EAD0A436E0E0BE0774F0E5D0A83E49
:1000C000E3E0BE07B4F4E0D0E4E6F0E0E0D0A4E67C
:1000D000B0E0E5D0AC83BD83AC81BD81EAE0F0E067
:1000E000D6D0AAE0B0E0DBD08D01E02FE05DEA934E
:1000F000CEDFEAE0EA93CBDF5BD12696089555D1B7
:1001000000E010E0E22DD0D03ED1E22DEE0FEF5F07
:10011000E6BFD101E4E6F0E018D1A4E6B0E0FDD0FE
:10012000DF01F101EA1BFB0B8F01F801AFEFB0E03B
:10013000F4D0DF01E3E6F0E008D1ECBF3ED1089552
:10014000EFE7F0E02E163F061CF4F1013196AFD038
:1001500008950024021403041CF4F1013197A7D080
:1001600008950A921A92FA926A937A938A939A93CA
:10017000AA93BA93EA93FA93EFB7EA939DD071F0FA
:10018000B49906C0B39B02C0DBDF01C0E2DF05C04B
:10019000B39902C0D5DF01C0DCDF0FC08DD069F09C
:1001A000B39906C0B49902C0CBDF01C0D2DF05C04D
:1001B000B49B02C0C5DF01C0CCDF56B2E991EFBFEE
:1001C000F991E991B991A99199918991799169915F
:1001D000F990199009901895E0E8E6BDE0E0E6BDD9
:1001E000EBBBEABBEBE1E8BBE7E0E7BBE0E0E2BB8F
:1001F000E0E2E1BBE3EAE0BFE4E0E3BFE0E0E2BF6E
:10020000E6BFECBFEFBDEEBDEDBDECBDE5BDE4BDB1
:10021000EBBDEABDE9BDE8BDE0E2EBBFE0E0E5BF74
:10022000E8E1E0BDE0E2EABFE0E0E9BFEDB9EBB94B
:10023000E8E0EAB9E6E0E3B9E0E0E2B9E3E3E9B92E
:10024000E0E8E8B931D03FD02FD092D02E2E332421
:10025000F10131961F0128D036D03AD039D04FDF86
:10026000789478943A922A9238D0C09B02C0C09871
:1002700001C0C09A3A922A9230D0C19B02C0C19864
:1002800001C0C19AEECFFFCFAC81BD8108955DD092
:100290008F01E02FE05DEA93FADEF80108953DD08A
:1002A000F3DFAE1BBF0B0895A0E0B0E008951F017F
:1002B0003A922A92F2DE23CFE52DE071AE2FE6B31B
:1002C000E071EA17089554D0F0E0FA93EA93E5CE8E
:1002D000E0E0F0E0FA93EA93E0CEE991F99130960C
:1002E00039F080ED97E00197F1F7A8953197C9F7BC
:1002F0000895F195E195F04008950A2E1B2E81E1B5
:10030000AA27BB1B05C010F4A00DB11DB695A7957B
:10031000F795E7958A95B9F708951CD0EEDF0EF4AE
:10032000E8DF08950024112490E1AA0FBB1F001CF0
:10033000111C0E1A1F0A18F40E0E1F1E01C0A16018
:100340009A9599F7FD01D001089504D0EBDF0EF4E2
:10035000D0DF0895E894F7FF02C0CBDF6894B7FFC1
:1003600006C0A095B095119600F8039400FA089580
:10037000E199FECFFF93FFB7F894AEBBE09AEDB3DF
:10038000FFBFFF910895E19B02C0A895FCCF9FB7E6
:10039000F894AEBBE09A8DB3E81719F0EDBBE29A82
:1003A000E19A9FBF08953A932A931A930A93089566
:1003B0003B812A8119810881089509911991089535
:00000001FF
