:0A00000012C0FECFFDCFFCCFFBCFF6
:10000A00FACFF9CFF8CFF7CFF6CFF5CFF4CFF3CFBA
:10001A00F2CFF1CF42C060C0EECFEDCFF894EE2719
:10002A00ECBBE5BFF8E1A4B7A77FA4BFF1BDE1BD72
:10003A008DE0A2E0ED938A95E9F780E8A0E6ED93DA
:10004A008A95E9F7E0E0E3BBE4BBE5BBEFEDEDBF82
:10005A00C0E896C1BD980895BD9A0895BF980895BD
:10006A00BF9A0895C5980895C59A0895C79808959E
:10007A00C79A0895E0EDEEB9E8EAEDB90895EADF26
:10008A00F1DFECDFF3DFE8DFEFDFE4DFEDDFE8DF0E
:10009A00EFDFF0DF0895F3DF0895B2D1DBDFB59922
:1000AA0002C0B79901C001C0FACFB59B06C0E7DF0D
:1000BA00B5D111F0AFECB6D198C0B0D111F0ABEC1C
:1000CA00B1D1E0E0B5D1E1E0B6D1EFEFEFB9E8EFB9
:1000DA00EDB9E0EDEEB989C093D1C9D11FB100E005
:1000EA009DD111F0A1ED9ED1E0918400A7D1309766
:1000FA0021F52297E12FE170E883E12FEE7F9ED16F
:10010A00F595E795E983E0918600A981EA1771F4EC
:10011A00E2E091D1E881E03011F0E1E001C0E4E0F1
:10012A00E09384008DD10EE097DF05C089D100E00D
:10013A00A1DFE3E080D1229654C0E130A0E0FA07C3
:10014A00B9F4E4E078D1E2E073D1E091C800A0917B
:10015A00C900AE1748F4E091C900EF5FE093C90007
:10016A00E150E855E08101C0E0E0EFB900E038C0B5
:10017A00E230A0E0FA0731F4E3E05AD161D10EE0AF
:10018A0069DF2FC0E330A0E0FA0759F4103029F0F4
:10019A00E0E04ED100E073DF03C0E1E049D1A4CF33
:1001AA0020C0E430A0E0FA0739F4E4E044D1E5E005
:1001BA003FD100E04FDF15C0E530A0E0FA0789F42F
:1001CA00E4E036D1A091A700AF3140F4E091A70056
:1001DA00EF5FE093A700E150E957108331D10EE0B9
:1001EA003BDFE02FE065EEB948D1E991EFBFF99125
:1001FA00E991B991A9919991899179916991F99026
:10020A001990099018951A9310E0EE81E0938600F0
:10021A00EB81FC81E0938200F0938300E981FA810B
:10022A00E0938000F0938100E0E0E093A7000BD117
:10023A00E0E001D130DF78940CD1309731F009D168
:10024A000995ECD011F0A5EDEDD0759B1BC0F89483
:10025A00E5D011F0ADECE6D0759AE0918500EED0CC
:10026A00E130A0E0FA0711F40ADF09C0E430A0E0A7
:10027A00FA0729F4D3D011F0A3EDD4D011E0E0E0CD
:10028A00DAD078941030B9F0DED0E2E8F0E0AE2FA0
:10029A00EAD0FF93EF93E091A700EA93E7E8EA93A5
:1002AA00E8ECEA93E8EAEA93EF91FF910995E0E036
:1002BA00E093A70010E0C0CF5D9BFECFE881ECB9C8
:1002CA0044C0D5D0EB81BAD03496B1979CF5C6D04C
:1002DA00EC93EC81A091D700AF5FEC9300E0EB8147
:1002EA000E1770F4E02FED5FA091D700EA0F0E2EE3
:1002FA00E02FAA81AE0FEC91A02DEC930F5FEFCF08
:10030A0001E010E0EB819AD03396A02FB0E0AE174F
:10031A00BF0744F4E02FA091D700AE0FEC911E0F57
:10032A000F5FF0CF9BD0EA0F1083EB81EC5FA091B7
:10033A00D800EC939FD025960895E0E0EA93E1E097
:10034A00EA93EC2FEE5FEA93BCDF219608958FD0F3
:10035A0011E005E0959B02C0959801C0959AED8140
:10036A00EA93AADFAC81EC91EA93A6DFEC81A18142
:10037A00AA93A2DFE8E0EA93E0DF7CD0269608950C
:10038A00E0E8E6BDE0E0E6BDEBBBEABBE4E0E8BBE3
:10039A00E7BBE0E0E2BBE0E2E1BBE0E0E0BFE3BFF5
:1003AA00E2BFE6BFECBFEFBDEEBDEDBDECBDE5BD06
:1003BA00E4BDEBBDEABDE9BDE8BDEBBFE5BFE9BF02
:1003CA00EAEEEDB9E0E0EBB9E8E0EAB9E6E0E3B974
:1003DA00E0E0E2B9E3E3E9B9E0E8E8B9E0E4EA93A6
:1003EA00E0E0EA93ECEAF1E0FA93EA93E0E0F0E085
:1003FA00FA93EA9308DFE4E0EA935EDFFFCFFFCFE8
:10040A000A921A92FA926A937A938A939A93AA937D
:10041A00BA93EA93FA93EFB7EA930895E091CA0080
:10042A00E0300895ED91FD913196FE93EE93089593
:10043A00E09384000895E09385000895F0E008951C
:10044A00E0E0EFB90895E0E0E093C800E093C90066
:10045A000895E0E8F0E0AE2F06D00895EB81ED5F55
:10046A00A091D7000895ED91FC91AA9508951A9349
:10047A000A93089519810881089509911991089597
:00000001FF
