:0A00000012C0FECFFDCFFCCFFBCFF6
:10000A00FACFF9CFF8CFF7CFF6CFF5CFF4CFF3CFBA
:10001A00F2CFF1CF42C058C0EECFEDCFF894EE2721
:10002A00ECBBE5BFF8E1A4B7A77FA4BFF1BDE1BD72
:10003A008DE0A2E0ED938A95E9F780E8A0E6ED93DA
:10004A008A95E9F7E0E0E3BBE4BBE5BBEFEDEDBF82
:10005A00C0E83DC1BD980895BD9A0895BF98089516
:10006A00BF9A0895C5980895C59A0895C79808959E
:10007A00C79A0895E0EDEEB9E8EAEDB90895EADF26
:10008A00F1DFECDFF3DFE8DFEFDFE4DFEDDFE8DF0E
:10009A00EFDFF0DF0895F3DF089559D1DBDFB5997B
:1000AA0002C0B79901C001C0FACFB59B02C0E7DF11
:1000BA0090C0E0E05AD1E1E05BD1EFEFEFB9E8EFB1
:1000CA00EDB9E0EDEEB985C042D169D11FB100E0CA
:1000DA00E091840050D1309721F52297E12FE17009
:1000EA00E883E12FEE7F47D1F595E795E983E09123
:1000FA008600A981EA1771F4E2E03AD1E881E0309A
:10010A0011F0E1E001C0E4E0E093840036D10EE0B2
:10011A00A3DF05C032D100E0ADDFE3E029D12296AA
:10012A0054C0E130A0E0FA07B9F4E4E021D1E2E0FA
:10013A001CD1E091A800A091A900AE1748F4E09163
:10014A00A900EF5FE093A900E150E856E08101C001
:10015A00E0E0EFB900E038C0E230A0E0FA0731F49D
:10016A00E3E003D10AD10EE075DF2FC0E330A0E04F
:10017A00FA0759F4103029F0E0E0F7D000E07FDF09
:10018A0003C0E1E0F2D0A4CF20C0E430A0E0FA0737
:10019A0039F4E4E0EDD0E5E0E8D000E05BDF15C03B
:1001AA00E530A0E0FA0789F4E4E0DFD0A0919700F7
:1001BA00AF3040F4E0919700EF5FE0939700E15091
:1001CA00E9571083DAD00EE047DFE02FE065EEB999
:1001DA00ECD0E991EFBFF991E991B991A99199917F
:1001EA00899179916991F9901990099018951A93C2
:1001FA0010E0EE81E0938600EB81FC81E0938200BF
:10020A00F0938300E981FA81E0938000F093810002
:10021A00E0E0E0939700B4D0E0E0AAD03CDF789425
:10022A00B5D0309711F0B2D00995759B13C0F894E8
:10023A00759AE09185009FD0E130A0E0FA0711F4A9
:10024A001EDF05C0E430A0E0FA0709F411E0E0E09F
:10025A008FD078941030B9F093D0E2E8F0E0AE2F66
:10026A009AD0FF93EF93E0919700EA93E7E8EA9335
:10027A00E8EAEA93E8E9EA93EF91FF910995E0E069
:10028A00E093970010E0CCCF5D9BFECFE881ECB9FC
:10029A002196089584D011E005E0959B02C09598B7
:1002AA0001C0959AED81EA93EFDFAC81EC91EA9374
:1002BA00EBDFEC81A181AA93E7DFAC810C910F5FA0
:1002CA00AB811C93AA810C936DD026960895E0E821
:1002DA00E6BDE0E0E6BDEBBBEABBE4E0E8BBE7BBBA
:1002EA00E0E0E2BBE0E2E1BBE0E0E0BFE3BFE2BFA7
:1002FA00E6BFECBFEFBDEEBDEDBDECBDE5BDE4BDB7
:10030A00EBBDEABDE9BDE8BDEBBFE5BFE9BFEAEE7B
:10031A00EDB9E0E0EBB9E8E0EAB9E6E0E3B9E0E03C
:10032A00E2B9E3E3E9B9E0E8E8B9E0E4EA93E0E056
:10033A00EA93EFE4F1E0FA93EA93E0E0F0E0FA936B
:10034A00EA9355DFE4E0EA939FDFFFCFFFCF0A92FB
:10035A001A92FA926A937A938A939A93AA93BA937D
:10036A00EA93FA93EFB7EA930895E0938400089525
:10037A00E09385000895F0E00895E0E0EFB908956C
:10038A00E0E0E093A800E093A9000895E0E8F0E037
:10039A00AE2F01D00895ED91FC91AA9508951A9374
:1003AA000A93089519810881089509911991089568
:00000001FF
