:0800000017C0FECFFDCFFCCFBD
:10000800FBCFFACFF9CFF8CFF7CFF6CFF5CFA7C10F
:10001800F3CFF2CFF1CF57C06DC0EECFEDCF0000D8
:100028000200040026000000F894EE27ECBBE5BFB0
:10003800F8E1A4B7A77FA4BFF1BDE1BD8DE0A2E0C0
:10004800ED938A95E9F780E8A0E6ED938A95E9F7BC
:10005800E8E2F0E085919591009761F0A591B5915E
:1000680005901590BF01F00105900D920197E1F7F9
:10007800FB01F0CFE0E0E3BBE4BBE5BBEFEDEDBF98
:10008800C0E800C2BD980895BD9A0895BF98089524
:10009800BF9A0895C5980895C59A0895C798089570
:1000A800C79A0895E0EDEEB9E8EAEDB90895EADFF8
:1000B800F1DFECDFF3DFE8DFEFDFE4DFEDDFE8DFE0
:1000C800EFDFF0DF08953FD2DDDFB59902C0B799C1
:1000D80001C001C0FACFB59B02C0E9DF85C1E0E0ED
:1000E80040D2E1E041D2EFEFEFB9E8EFEDB9E0ED52
:1000F800EEB97AC128D2D6D21FB100E0E0918400CF
:1001080036D2309721F52297E12FE170E883E12F6D
:10011800EE7F2DD2F595E795E983E0918600A981D8
:10012800EA1771F4E2E020D2E881E03011F0E1E072
:1001380001C0E4E0E09384001CD20EE0A5DF05C016
:1001480018D200E0AFDFE3E00FD2229654C0E130CE
:10015800A0E0FA07B9F4E4E007D2E2E002D2E091C5
:10016800A800A091A900AE1748F4E091A900EF5F9C
:10017800E093A900E150E856E08101C0E0E0EFB962
:1001880000E038C0E230A0E0FA0731F4E3E0E9D15A
:10019800F0D10EE077DF2FC0E330A0E0FA0759F482
:1001A800103029F0E0E0DDD100E081DF03C0E1E0BC
:1001B800D8D1A4CF20C0E430A0E0FA0739F4E4E0B5
:1001C800D3D1E5E0CED100E05DDF15C0E530A0E099
:1001D800FA0789F4E4E0C5D1A0919700AF3040F464
:1001E800E0919700EF5FE0939700E150E9571083A3
:1001F800C0D10EE049DFE02FE065EEB956D2F4C079
:10020800E0E0EBBBE3E0EABBEBE5E8BBE0E0E7BB43
:10021800E2BBEFE5E1BBE3EAE0BFE3E0E3BFE0E038
:10022800E2BFE6BFECBFEFBDEEBDEDBDECBDE5BD89
:10023800E4BDEBBDEABDE9BDE8BDE0E2EBBFE0E04F
:10024800E5BFEBE5E0BDE0E2EABFE0E0E9BFE0E8FA
:10025800E8B90895A0E0B0E0FED1EF2FF0E0E6BFE6
:10026800A0E0B0E0FCD1ECBF08951CD200E010E0A3
:1002780006B71127102F0027ECB779D10E2B1F2BAB
:10028800F801A0E0B0E0F6D110D2089575D161F47C
:10029800E6B7EE3F10F0EFEFE6BFE6B7EF3F18F432
:1002A800E6B7EE5FE6BF0BC0ECB7EE3F10F0EFEF3E
:1002B800ECBFECB7EF3F18F4ECB7EE5FECBF1BC038
:1002C8005BD169F4E6B7E13011F4E0E0E6BFE6B7E8
:1002D800E13020F0E6B74BD13297E6BF0CC0ECB75F
:1002E800E13011F4E0E0ECBFECB7E13020F0ECB71E
:1002F8003ED13297ECBFB9DF0895A2E0B0E0AFD1AC
:100308007FD1A2E0B0E0BED10895BA9AE1E05E2ABA
:100318000895BA98EEEF13C0E881E03011F0F5DFE8
:1003280001C0F7DF14C0E52DE1706AD1EA93F4DF6C
:100338000895E2E05E2A8D9A08958D98EDEF5E2289
:100348000895E881E03011F0F4DF01C0F6DF21966E
:100358000895E52DE27054D1EA93F3DF0895F3D0C0
:10036800E42D0FD112D10DD1EA1779F0E6B309D1F6
:1003780031F40ED111F0A4DF01C088DF05C008D127
:1003880011F084DF01C09CDF2EC0E42DF0D025D110
:10039800E170FBD0ECD021D1E170EA1721F5A42D52
:1003A800B0E0E6E00FD1E170F0D0F7D0EA1719F02D
:1003B800E6B3F3D009F402C0A0DF15C0E42DE27063
:1003C800E4D0E270EA1711F0B19B01C002C0ABDFC4
:1003D8000AC0E42DE170D9D0E170EA1711F0B09BA2
:1003E80001C001C0B6DF46B2E991EFBFF991E991CA
:1003F800B991A9919991899179916991F9901990F7
:10040800099018951A93A981A138B0F1E981AFD064
:10041800E058F040DF01E9E1F0E00AD11E2FE12FBA
:10042800A6D0E130A0E0FA0719F4969ABBD023C011
:10043800E230A0E0FA0729F4BAD0D998D89892986F
:100448001AC0E330A0E0FA0729F4B1D0D99AD898B5
:10045800929811C0E430A0E0FA0729F4A8D0D99AFC
:10046800D89A929808C0E530A0E0FA0721F49FD006
:10047800D99AD89A929A03C09698909893D018814E
:100488002296089510E020E030E0E0E8E6BDE0E0E4
:10049800E6BDB6DEDFDE78946FD031F550FE08C0D9
:1004A80089D0A8D0E03011F4939801C0939A07C07E
:1004B80081D09AD0E03011F4939801C0939A51FCFE
:1004C80002C0949801C0949AE6B7E63810F0E6B7EF
:1004D80008C02134EFE13E0718F0E6B7E85801C03C
:1004E800E0E0EA938FDF25C050FC02C0939801C07A
:1004F800939A51FE08C05ED07DD0E03011F49498F4
:1005080001C0949A07C056D06FD0E03011F4949887
:1005180001C0949AECB7E63810F0ECB708C0213463
:10052800EFE13E0718F0ECB7E85801C0E0E0EA93C5
:1005380069DF2F5F3F4F2038EEE33E0710F020E0E1
:1005480030E0AACFFFCF0A921A92FA926A937A936E
:100558008A939A93AA93BA93EA93FA93EFB7EA9392
:100568000895E09384000895E09385000895F0E0ED
:100578000895E0E0EFB90895A2E0B0E070D0E0306F
:100588000895F5DF28D0E1700895AE2FE6B30895F9
:10059800E6B3EDDF22D0E1700895E9DF20D01BD06B
:1005A800E17008959198D998D89892980895969A54
:1005B800919A0895D901E0E9F1E00895F195E1955E
:1005C800F0400895EE230E2EFD0121F0F595E795F4
:1005D8000A94E1F70895F595E795F595E795F5956A
:1005E800E795F595E7950895AE17BF07E1E008F0A0
:1005F800EE270895EA17FB07E1E008F0EE270895D3
:10060800EE23E1E009F0EE2708950024112490E19B
:10061800AA0FBB1F001C111C0E1A1F0A18F40E0E7D
:100628001F1E01C0A1609A9599F7FD01D001089598
:1006380004D0EBDF0EF4C2DF0895E894F7FF02C0A0
:10064800BDDF6894B7FF06C0A095B095119600F875
:10065800039400FA0895119602D0FE2F1197E1999C
:10066800FECFFF93FFB7F894AEBBE09AEDB3FFBFA0
:10067800FF91089507D01196EF93EF2F03D0EF91D4
:1006880011970895E19B02C0A895FCCF9FB7F894F5
:10069800AEBBE09A8DB3E81719F0EDBBE29AE19A88
:1006A8009FBF08951A930A9308950991199108957F
:00000001FF
