:0200000012C02C
:10000200FECFFDCFFCCFFBCFFACFF9CFF8CFF7CFA2
:10001200F6CFF5CF23C0F3CFF2CFF1CFF0CFEFCFB2
:10002200EECFEDCFF894EE27ECBBE5BFF8E1A4B735
:10003200A77FA4BFF1BDE1BD8DE0A2E0ED938A955B
:10004200E9F780E8A0E6ED938A95E9F7E0E0E3BB03
:10005200E4BBE5BBEFEDEDBFC0E801C01895E0E8F9
:10006200E6BDE0E0E6BDEBBBE3E0EABBEBE5E8BB07
:10007200E4E0E7BBE0E0E2BBEFE7E1BBE3EAE0BFDD
:10008200E4E0E3BFE0E0E2BFE6BFECBFEFBDEEBD00
:10009200EDBDECBDE5BDE4BDEBBDEABDE9BDE8BD2E
:1000A200E0E2EBBFE0E0E5BFEBE5E0BDE0E2EABFA6
:1000B200E0E0E9BFEDB9E0E8E8B97894FFCFFFCF1F
:00000001FF
