:0600000012C0FECFFDCF8F
:10000600FCCFFBCFFACFF9CFF8CFF7CFF6CFF5CFAE
:1000160019C1F3CFF2CFF1CF40C056C0EECFEDCF2E
:10002600F894EE27ECBBE5BFF8E1A4B7A77FA4BF21
:10003600F1BDE1BD8DE0A2E0ED938A95E9F780E898
:10004600A0E6ED938A95E9F7E0E0E3BBE4BBE5BB08
:10005600EFEDEDBFC0E8F7C0BD980895BD9A0895CD
:10006600BF980895BF9A0895C5980895C59A0895AA
:10007600C7980895C79A0895E0EDEEB9E8EAEDB994
:100086000895EADFF1DFECDFF3DFE8DFEFDFE4DF3F
:10009600EDDFE8DFEFDFF0DF0895DDD0DDDFB599D6
:1000A60002C0B79901C001C0FACFB59B02C0E9DF13
:1000B60090C0E0E0DED0E1E0DFD0EFEFEFB9E8EFAF
:1000C600EDB9E0EDEEB985C0C6D0DCD01FB100E0D9
:1000D600E0918400F0E0309721F52297E12FE1705E
:1000E600E883E12FEE7FF0E0F595E795E983E0916F
:1000F6008600A981EA1771F4E2E0BED0E881E0301B
:1001060011F0E1E001C0E4E0E0938400B8D00EE035
:10011600A5DF05C0B4D000E0AFDFE3E0ADD02296A6
:1001260054C0E130A0E0FA07B9F4E4E0A5D0E2E07B
:10013600A0D0E091A800A091A900AE1748F4E091E4
:10014600A900EF5FE093A900E150E856E08101C005
:10015600E0E0EFB900E038C0E230A0E0FA0731F4A1
:10016600E3E087D08CD00EE077DF2FC0E330A0E04D
:10017600FA0759F4103029F0E0E07BD000E081DF87
:1001860003C0E1E076D0A4CF20C0E430A0E0FA07B7
:1001960039F4E4E071D0E5E06CD000E05DDF15C035
:1001A600E530A0E0FA0789F4E4E063D0A091970077
:1001B600AF3040F4E0919700EF5FE0939700E15095
:1001C600E95710835CD00EE049DFE02FE065EEB919
:1001D6005CD0E991EFBFF991E991B991A991999113
:1001E600899179916991F990199009901895E0E0B3
:1001F600EBBBE3E0EABBEBE5E8BBE4E0E7BBE0E052
:10020600E2BBEFE7E1BBE3EAE0BFE4E0E3BFE0E047
:10021600E2BFE6BFECBFEFBDEEBDEDBDECBDE5BD9B
:10022600E4BDEBBDEABDE9BDE8BDE0E2EBBFE0E061
:10023600E5BFEBE5E0BDE0E2EABFE0E0E9BFE0E80C
:10024600E8B908951895E0E8E6BDE0E0E6BDCFDF41
:100256007894FFCFFFCF0A921A92FA926A937A9312
:100266008A939A93AA93BA93EA93FA93EFB7EA9387
:100276000895E09384000895E09385000895E0E0F2
:10028600EFB908951A930A9308950991199108955B
:00000001FF
