:0C00000017C0FECFFDCFFCCFFBCFFACF26
:10000C00F9CFF8CFF7CFF6CFF5CF0EC2F3CFF2CFB3
:10001C00F1CF59C06FC0EECFEDCF0000020004004D
:10002C0026000000F894EE27ECBBE5BFF8E1A4B77E
:10003C00A77FA4BFF1BDE1BD8DE0A2E0ED938A9551
:10004C00E9F780E8A0E6ED938A95E9F7E8E2F0E0BD
:10005C0085919591009761F0A591B59105901590BA
:10006C00BF01F00105900D920197E1F7FB01F0CF74
:10007C00E0E0E3BBE4BBE5BBEFEDEDBFC0E86DC278
:10008C00BD980895BD9A0895BF980895BF9A089594
:10009C00C5980895C59A0895C7980895C79A089564
:1000AC00E0EDEEB9E8EAEDB90895EADFF1DFECDF57
:1000BC00F3DFE8DFEFDFE4DFEDDFE8DFEFDFF0DFDA
:1000CC000895F3DF08957FD2DBDFB59902C0B799AD
:1000DC0001C001C0FACFB59B02C0E7DFEFC1E0E081
:1000EC0080D2E1E081D2EFEFEFB9E8EFEDB9E0EDCE
:1000FC00EEB9E4C168D20ED31FB100E0E0918400E8
:10010C0076D2309721F52297E12FE170E883E12F29
:10011C00EE7F6DD2F595E795E983E0918600A98194
:10012C00EA1771F4E2E060D2E881E03011F0E1E02E
:10013C0001C0E4E0E09384005CD20EE0A3DF05C0D4
:10014C0058D200E0ADDFE3E04FD2229650C054D23B
:10015C00B9F4E4E049D2E2E044D2E091A800A091E5
:10016C00A900AE1748F4E091A900EF5FE093A90055
:10017C00E150E856E08101C0E0E0EFB900E036C0A4
:10018C00E230A0E0FA0731F4E3E02BD232D20EE0F9
:10019C0077DF2DC0E330A0E0FA0759F4103029F0D6
:1001AC00E0E01FD200E081DF03C0E1E01AD2A6CF6D
:1001BC001EC026D239F4E4E017D2E5E012D200E0FA
:1001CC005FDF15C0E530A0E0FA0789F4E4E009D25E
:1001DC00A0919700AF3040F4E0919700EF5FE0936F
:1001EC009700E150E957108304D20EE04BDFE02F6B
:1001FC00E065EEB992D262C11A9310E0EE81E09301
:10020C008600EB81FC81E0938200F0938300E9810E
:10021C00FA81E0938000F0938100E0E0E093970096
:10022C00F3D1E0E0E1D14DDF7894F4D1309711F0C7
:10023C00F1D10995759B0FC0F894759AE0918500E2
:10024C00D6D1DAD111F431DF03C0DAD109F411E0DF
:10025C00E0E0CAD178941030B9F0D6D1E2E8F0E001
:10026C00AE2F31D2FF93EF93E0919700EA93E7E83A
:10027C00EA93E8EAEA93E8E9EA93EF91FF910995AA
:10028C00E0E0E093970010E0D0CFE0E0EBBBE3E0E0
:10029C00EABBEBE5E8BBE0E0E7BBE2BBEFE5E1BBCB
:1002AC00E3EAE0BFE4E0E3BFE0E0E2BFE6BFECBFBF
:1002BC00EFBDEEBDEDBDECBDE5BDE4BDEBBDEABDF6
:1002CC00E9BDE8BDE0E2EBBFE0E0E5BFEBE5E0BD9A
:1002DC00E0E2EABFE0E0E9BFE0E8E8B90895A9810F
:1002EC00E3E0EC93E6B7A881EC93AF5FECB7EC934B
:1002FC00E881528230C1AB81A230E1F490D1E1703F
:10030C0019F090D16ED016C08AD1E27019F08AD152
:10031C007DD010C084D1E47029F0AA81AF5FEC913C
:10032C00E6BF07C07CD1E87029F0AA81AF5FEC91E1
:10033C00ECBF12D0E981EA93E981EA93D0DF2496ED
:10034C000895A0E0B0E0C3D152D18DD1E6BFA0E0BA
:10035C00B0E0BDD1ECBF0895DDD100E010E0E6B710
:10036C00FE2FE0E08F01ECB742D10E2B1F2BF801D2
:10037C00A0E0B0E0B7D1D1D108955AD141F4E6B79D
:10038C00EF3F20F4E6B7EF5FE6BFE15007C0ECB7F4
:10039C00EF3F20F4ECB7EF5FECBFE15011C048D158
:1003AC0041F4E6B7E13020F0E6B7E150E6BFEF5F8D
:1003BC0007C0ECB7E13020F0ECB7E150ECBFEF5FD9
:1003CC00CBDF0895A2E0B0E082D152D1A2E0B0E040
:1003DC0091D10895BA9AE1E05E2A0895BA98EEEFA9
:1003EC0013C0E881E03011F0F5DF01C0F7DF14C075
:1003FC00E52DE1703DD1EA93F4DF0895E2E05E2A49
:10040C008D9A08958D98EDEF5E220895E881E03085
:10041C0011F0F4DF01C0F6DF21960895E52DE270AE
:10042C0027D1EA93F3DF0895CED0E42DE07105D106
:10043C00E071EA1771F0B49906C0B39B02C09DDF5E
:10044C0001C0ADDF05C0B39902C097DF01C0A7DFC3
:10045C0034C0E42DE870F1D0E870EA1771F0B3996C
:10046C0006C0B49902C089DF01C099DF05C0B49BF6
:10047C0002C083DF01C093DF20C0E42DE074DDD027
:10048C00E074EA1711F0B69B01C002C09BDF15C0E7
:10049C00E42DE270D2D0E270EA1711F0B19B01C0EA
:1004AC0002C0A6DF0AC0E42DE170C7D0E170EA17E4
:1004BC0011F0B09B01C001C0B1DF48B2E991EFBFB0
:1004CC00F991E991B991A991999189917991699150
:1004DC00F9901990099018951A93A981A635A0F155
:1004EC00E98185D0E555F040DF01E2E2F0E0D8D0BB
:1004FC001E2FE12F7CD080D031F4949A939892984F
:10050C00D898D99821C0E230A0E0FA0729F498D005
:10051C009298D898D99818C0E330A0E0FA0729F43B
:10052C008FD0929AD898D9980FC06AD029F488D0D5
:10053C00929AD89AD99808C0E530A0E0FA0721F42D
:10054C007FD0929AD89AD99AE981E03011F4969892
:10055C0001C0969A18812296089510E0E0E8E6BD55
:10056C00E0E0E6BD92DEEDDEE0E4EA93E0E0EA9363
:10057C00E1E8F1E0FA93EA93E0E0F0E0FA93EA9331
:10058C003BDE789455D021F4E6B7EA93A5DF0FC093
:10059C00103011F0ECB701C0E0E0EA939DDFE12FE1
:1005AC0067D01E2FE2E3F0E0FA93EA934CD050FCB4
:1005BC0002C0909801C0909A51FC02C0919801C061
:1005CC00919AE0CFFFCF0A921A92FA926A937A9399
:1005DC008A939A93AA93BA93EA93FA93EFB7EA930E
:1005EC000895E09384000895E09385000895F0E069
:1005FC000895E0E0EFB90895E130A0E0FA0708951E
:10060C00E430A0E0FA070895E0E0E093A800E0935E
:10061C00A9000895E0E8F0E0AE2F55D00895AA8126
:10062C00EC910895EA81A181E1E0EA23EA9308952F
:10063C00A2E0B0E04CD0E0300895AE2FE6B30895C0
:10064C00949A939A0895E991F991309639F080ED46
:10065C0097E00197F1F7A8953197C9F70895F195AF
:10066C00E195F0400895EF2FFF27E7FDFFEF089588
:10067C00EE23E1E009F0EE2708950024112490E127
:10068C00AA0FBB1F001C111C0E1A1F0A18F40E0E09
:10069C001F1E01C0A1609A9599F7FD01D001089524
:1006AC0004D0EBDF0EF4DBDF0895E894F7FF02C013
:1006BC00D6DF6894B7FF06C0A095B095119600F8E8
:1006CC00039400FA0895ED91FC91AA950895E1998F
:1006DC00FECFFF93FFB7F894AEBBE09AEDB3FFBF2C
:1006EC00FF91089507D01196EF93EF2F03D0EF9160
:1006FC0011970895E19B02C0A895FCCF9FB7F89481
:10070C00AEBBE09A8DB3E81719F0EDBBE29AE19A13
:10071C009FBF08951A930A9308950991199108950A
:00000001FF
