:0800000017C0FECFFDCFFCCFBD
:10000800FBCFFACFF9CFF8CFF7CFF6CFF5CFA7C10F
:10001800F3CFF2CFF1CF57C06DC0EECFEDCF0000D8
:100028000200040026000000F894EE27ECBBE5BFB0
:10003800F8E1A4B7A77FA4BFF1BDE1BD8DE0A2E0C0
:10004800ED938A95E9F780E8A0E6ED938A95E9F7BC
:10005800E8E2F0E085919591009761F0A591B5915E
:1000680005901590BF01F00105900D920197E1F7F9
:10007800FB01F0CFE0E0E3BBE4BBE5BBEFEDEDBF98
:10008800C0E804C2BD980895BD9A0895BF98089520
:10009800BF9A0895C5980895C59A0895C798089570
:1000A800C79A0895E0EDEEB9E8EAEDB90895EADFF8
:1000B800F1DFECDFF3DFE8DFEFDFE4DFEDDFE8DFE0
:1000C800EFDFF0DF08950BD2DDDFB59902C0B799F5
:1000D80001C001C0FACFB59B02C0E9DF85C1E0E0ED
:1000E8000CD2E1E00DD2EFEFEFB9E8EFEDB9E0EDBA
:1000F800EEB97AC1F4D19ED21FB100E0E09184003C
:1001080002D2309721F52297E12FE170E883E12FA1
:10011800EE7FF9D1F595E795E983E0918600A9810D
:10012800EA1771F4E2E0ECD1E881E03011F0E1E0A7
:1001380001C0E4E0E0938400E8D10EE0A5DF05C04B
:10014800E4D100E0AFDFE3E0DBD1229654C0E13038
:10015800A0E0FA07B9F4E4E0D3D1E2E0CED1E0912F
:10016800A800A091A900AE1748F4E091A900EF5F9C
:10017800E093A900E150E856E08101C0E0E0EFB962
:1001880000E038C0E230A0E0FA0731F4E3E0B5D18E
:10019800BCD10EE077DF2FC0E330A0E0FA0759F4B6
:1001A800103029F0E0E0A9D100E081DF03C0E1E0F0
:1001B800A4D1A4CF20C0E430A0E0FA0739F4E4E0E9
:1001C8009FD1E5E09AD100E05DDF15C0E530A0E001
:1001D800FA0789F4E4E091D1A0919700AF3040F498
:1001E800E0919700EF5FE0939700E150E9571083A3
:1001F8008CD10EE049DFE02FE065EEB91ED2F4C0E5
:10020800E0E0EBBBE3E0EABBEBE5E8BBE0E0E7BB43
:10021800E2BBEFE5E1BBE3EAE0BFE3E0E3BFE0E038
:10022800E2BFE6BFECBFEFBDEEBDEDBDECBDE5BD89
:10023800E4BDEBBDEABDE9BDE8BDE0E2EBBFE0E04F
:10024800E5BFEBE5E0BDE0E2EABFE0E0E9BFE0E8FA
:10025800E8B90895A0E0B0E0C6D1EF2FF0E0E6BF1E
:10026800A0E0B0E0C4D1ECBF0895E4D100E010E014
:1002780006B71127102F0027ECB745D10E2B1F2BDF
:10028800F801A0E0B0E0BED1D8D1089541D161F421
:10029800E6B7EE3F10F0EFEFE6BFE6B7EF3F18F432
:1002A800E6B7EE5FE6BF0BC0ECB7EE3F10F0EFEF3E
:1002B800ECBFECB7EF3F18F4ECB7EE5FECBF1BC038
:1002C80027D169F4E6B7E13011F4E0E0E6BFE6B71C
:1002D800E13020F0E6B717D13297E6BF0CC0ECB793
:1002E800E13011F4E0E0ECBFECB7E13020F0ECB71E
:1002F8000AD13297ECBFB9DF0895A2E0B0E077D118
:1003080047D1A2E0B0E086D10895BA9AE1E05E2A2A
:100318000895BA98EEEF13C0E881E03011F0F5DFE8
:1003280001C0F7DF14C0E52DE17032D1EA93F4DFA4
:100338000895E2E05E2A8D9A08958D98EDEF5E2289
:100348000895E881E03011F0F4DF01C0F6DF21966E
:100358000895E52DE2701CD1EA93F3DF0895BFD02C
:10036800E42DDBD0DED0D9D0EA1779F0E6B3D5D0CA
:1003780031F4DAD011F0A4DF01C088DF05C0D4D091
:1003880011F084DF01C09CDF2EC0E42DBCD0F9D071
:10039800E170C7D0B8D0F5D0E170EA1721F5A42DE7
:1003A800B0E0E6E0E3D0E170BCD0C3D0EA1719F0C2
:1003B800E6B3BFD009F402C0A0DF15C0E42DE27097
:1003C800B0D0E270EA1711F0B19B01C002C0ABDFF8
:1003D8000AC0E42DE170A5D0E170EA1711F0B09BD6
:1003E80001C001C0B6DF46B2E991EFBFF991E991CA
:1003F800B991A9919991899179916991F9901990F7
:10040800099018951A93949899D0A981A635A8F1BE
:10041800E98179D0E555F040DF01E2E2F0E0D0D0A3
:100428001E2FE12F70D0E130A0E0FA0719F4949A5A
:1004380085D023C0E230A0E0FA0729F484D092984E
:10044800D898D9981AC0E330A0E0FA0729F47BD0ED
:10045800929AD898D99811C0E430A0E0FA0729F404
:1004680072D0929AD89AD99808C0E530A0E0FA07D5
:1004780021F469D0929AD89AD99AE981E03011F496
:10048800969801C0969A18812296089510E0E0E89F
:10049800E6BDE0E0E6BDB4DEDDDE789450FC02C0E7
:1004A800909801C0909A51FC02C0919801C0919A0D
:1004B8002FD021F4E6B7EA93A5DF0FC0103011F072
:1004C800ECB701C0E0E0EA939DDFE12F61D01E2F79
:1004D800E2E3F0E0FA93EA9339D0E0CFFFCF0A9253
:1004E8001A92FA926A937A938A939A93AA93BA93EE
:1004F800EA93FA93EFB7EA930895E0938400089596
:10050800E09385000895F0E00895E0E0EFB90895DC
:10051800A2E0B0E06CD0E0300895F5DF30D0E170B3
:100528000895AE2FE6B30895E6B3EDDF2AD0E17063
:100538000895E9DF28D023D0E17008959398929820
:10054800D898D9980895949A939A0895E991F99129
:10055800309639F080ED97E00197F1F7A89531973B
:10056800C9F70895F195E195F0400895EE230E2E10
:10057800FD0121F0F595E7950A94E1F70895F595C1
:10058800E795F595E795F595E795F595E795089538
:10059800EE23E1E009F0EE2708950024112490E10C
:1005A800AA0FBB1F001C111C0E1A1F0A18F40E0EEE
:1005B8001F1E01C0A1609A9599F7FD01D001089509
:1005C80004D0EBDF0EF4CEDF0895E894F7FF02C005
:1005D800C9DF6894B7FF06C0A095B095119600F8DA
:1005E800039400FA0895119602D0FE2F1197E1990D
:1005F800FECFFF93FFB7F894AEBBE09AEDB3FFBF11
:10060800FF91089507D01196EF93EF2F03D0EF9144
:1006180011970895E19B02C0A895FCCF9FB7F89465
:10062800AEBBE09A8DB3E81719F0EDBBE29AE19AF8
:100638009FBF08951A930A930895099119910895EF
:00000001FF
